{
  "contractName": "Main",
  "abi": [
    {
      "inputs": [],
      "stateMutability": "nonpayable",
      "type": "constructor"
    },
    {
      "inputs": [],
      "name": "Admin",
      "outputs": [
        {
          "internalType": "address",
          "name": "",
          "type": "address"
        }
      ],
      "stateMutability": "view",
      "type": "function",
      "constant": true
    },
    {
      "inputs": [],
      "name": "Fabricantlist",
      "outputs": [
        {
          "internalType": "address[]",
          "name": "",
          "type": "address[]"
        },
        {
          "internalType": "string[]",
          "name": "",
          "type": "string[]"
        },
        {
          "internalType": "uint32[]",
          "name": "",
          "type": "uint32[]"
        },
        {
          "internalType": "string[]",
          "name": "",
          "type": "string[]"
        },
        {
          "internalType": "string[]",
          "name": "",
          "type": "string[]"
        }
      ],
      "stateMutability": "view",
      "type": "function",
      "constant": true
    },
    {
      "inputs": [],
      "name": "medicamentListforFabricant1",
      "outputs": [
        {
          "internalType": "string[]",
          "name": "",
          "type": "string[]"
        },
        {
          "internalType": "string[]",
          "name": "",
          "type": "string[]"
        },
        {
          "internalType": "uint32[]",
          "name": "",
          "type": "uint32[]"
        },
        {
          "internalType": "uint32[]",
          "name": "",
          "type": "uint32[]"
        }
      ],
      "stateMutability": "view",
      "type": "function",
      "constant": true
    },
    {
      "inputs": [],
      "name": "medicamentListforFabricant2",
      "outputs": [
        {
          "internalType": "string[]",
          "name": "",
          "type": "string[]"
        },
        {
          "internalType": "string[]",
          "name": "",
          "type": "string[]"
        },
        {
          "internalType": "uint32[]",
          "name": "",
          "type": "uint32[]"
        },
        {
          "internalType": "string[]",
          "name": "",
          "type": "string[]"
        },
        {
          "internalType": "string[]",
          "name": "",
          "type": "string[]"
        },
        {
          "internalType": "string[]",
          "name": "",
          "type": "string[]"
        },
        {
          "internalType": "string[]",
          "name": "",
          "type": "string[]"
        }
      ],
      "stateMutability": "view",
      "type": "function",
      "constant": true
    },
    {
      "inputs": [],
      "name": "medicamentListforpharmacien1",
      "outputs": [
        {
          "internalType": "string[]",
          "name": "",
          "type": "string[]"
        },
        {
          "internalType": "string[]",
          "name": "",
          "type": "string[]"
        },
        {
          "internalType": "uint32[]",
          "name": "",
          "type": "uint32[]"
        },
        {
          "internalType": "uint32[]",
          "name": "",
          "type": "uint32[]"
        },
        {
          "internalType": "uint32[]",
          "name": "",
          "type": "uint32[]"
        },
        {
          "internalType": "string[]",
          "name": "",
          "type": "string[]"
        }
      ],
      "stateMutability": "view",
      "type": "function",
      "constant": true
    },
    {
      "inputs": [],
      "name": "medicamentListforpharmacien2",
      "outputs": [
        {
          "internalType": "string[]",
          "name": "",
          "type": "string[]"
        },
        {
          "internalType": "string[]",
          "name": "",
          "type": "string[]"
        },
        {
          "internalType": "string[]",
          "name": "",
          "type": "string[]"
        },
        {
          "internalType": "string[]",
          "name": "",
          "type": "string[]"
        }
      ],
      "stateMutability": "view",
      "type": "function",
      "constant": true
    },
    {
      "inputs": [],
      "name": "medicamentListfortransporteur1",
      "outputs": [
        {
          "internalType": "string[]",
          "name": "",
          "type": "string[]"
        },
        {
          "internalType": "string[]",
          "name": "",
          "type": "string[]"
        },
        {
          "internalType": "uint32[]",
          "name": "",
          "type": "uint32[]"
        },
        {
          "internalType": "uint32[]",
          "name": "",
          "type": "uint32[]"
        },
        {
          "internalType": "uint32[]",
          "name": "",
          "type": "uint32[]"
        },
        {
          "internalType": "string[]",
          "name": "",
          "type": "string[]"
        }
      ],
      "stateMutability": "view",
      "type": "function",
      "constant": true
    },
    {
      "inputs": [],
      "name": "medicamentListfortransporteur2",
      "outputs": [
        {
          "internalType": "string[]",
          "name": "",
          "type": "string[]"
        },
        {
          "internalType": "string[]",
          "name": "",
          "type": "string[]"
        },
        {
          "internalType": "string[]",
          "name": "",
          "type": "string[]"
        },
        {
          "internalType": "string[]",
          "name": "",
          "type": "string[]"
        }
      ],
      "stateMutability": "view",
      "type": "function",
      "constant": true
    },
    {
      "inputs": [],
      "name": "pharmacienlist",
      "outputs": [
        {
          "internalType": "address[]",
          "name": "",
          "type": "address[]"
        },
        {
          "internalType": "string[]",
          "name": "",
          "type": "string[]"
        },
        {
          "internalType": "uint32[]",
          "name": "",
          "type": "uint32[]"
        },
        {
          "internalType": "string[]",
          "name": "",
          "type": "string[]"
        },
        {
          "internalType": "string[]",
          "name": "",
          "type": "string[]"
        }
      ],
      "stateMutability": "view",
      "type": "function",
      "constant": true
    },
    {
      "inputs": [],
      "name": "transporteurlist",
      "outputs": [
        {
          "internalType": "address[]",
          "name": "",
          "type": "address[]"
        },
        {
          "internalType": "string[]",
          "name": "",
          "type": "string[]"
        },
        {
          "internalType": "uint32[]",
          "name": "",
          "type": "uint32[]"
        },
        {
          "internalType": "string[]",
          "name": "",
          "type": "string[]"
        },
        {
          "internalType": "string[]",
          "name": "",
          "type": "string[]"
        }
      ],
      "stateMutability": "view",
      "type": "function",
      "constant": true
    },
    {
      "inputs": [
        {
          "internalType": "address",
          "name": "_id",
          "type": "address"
        },
        {
          "internalType": "string",
          "name": "_name",
          "type": "string"
        },
        {
          "internalType": "uint32",
          "name": "_phonenumber",
          "type": "uint32"
        },
        {
          "internalType": "string",
          "name": "_gouvernorat",
          "type": "string"
        }
      ],
      "name": "signupFabricant",
      "outputs": [],
      "stateMutability": "nonpayable",
      "type": "function"
    },
    {
      "inputs": [
        {
          "internalType": "address",
          "name": "_id",
          "type": "address"
        },
        {
          "internalType": "string",
          "name": "_name",
          "type": "string"
        },
        {
          "internalType": "uint32",
          "name": "_phonenumber",
          "type": "uint32"
        },
        {
          "internalType": "string",
          "name": "_gouvernorat",
          "type": "string"
        }
      ],
      "name": "signupTransporteur",
      "outputs": [],
      "stateMutability": "nonpayable",
      "type": "function"
    },
    {
      "inputs": [
        {
          "internalType": "address",
          "name": "_id",
          "type": "address"
        },
        {
          "internalType": "string",
          "name": "_name",
          "type": "string"
        },
        {
          "internalType": "uint32",
          "name": "_phonenumber",
          "type": "uint32"
        },
        {
          "internalType": "string",
          "name": "_gouvernorat",
          "type": "string"
        }
      ],
      "name": "signupPharmacien",
      "outputs": [],
      "stateMutability": "nonpayable",
      "type": "function"
    },
    {
      "inputs": [
        {
          "internalType": "address",
          "name": "_id",
          "type": "address"
        },
        {
          "internalType": "string",
          "name": "_statut",
          "type": "string"
        }
      ],
      "name": "block_deblockFabricant",
      "outputs": [],
      "stateMutability": "nonpayable",
      "type": "function"
    },
    {
      "inputs": [
        {
          "internalType": "address",
          "name": "_id",
          "type": "address"
        },
        {
          "internalType": "string",
          "name": "_statut",
          "type": "string"
        }
      ],
      "name": "block_deblockTransporteur",
      "outputs": [],
      "stateMutability": "nonpayable",
      "type": "function"
    },
    {
      "inputs": [
        {
          "internalType": "address",
          "name": "_id",
          "type": "address"
        },
        {
          "internalType": "string",
          "name": "_statut",
          "type": "string"
        }
      ],
      "name": "block_deblockPharmacien",
      "outputs": [],
      "stateMutability": "nonpayable",
      "type": "function"
    },
    {
      "inputs": [],
      "name": "isAdminExists",
      "outputs": [
        {
          "internalType": "string",
          "name": "",
          "type": "string"
        }
      ],
      "stateMutability": "view",
      "type": "function",
      "constant": true
    },
    {
      "inputs": [],
      "name": "isFabricantExists",
      "outputs": [
        {
          "internalType": "string",
          "name": "",
          "type": "string"
        }
      ],
      "stateMutability": "view",
      "type": "function",
      "constant": true
    },
    {
      "inputs": [],
      "name": "isTransporteurExists",
      "outputs": [
        {
          "internalType": "string",
          "name": "",
          "type": "string"
        }
      ],
      "stateMutability": "view",
      "type": "function",
      "constant": true
    },
    {
      "inputs": [],
      "name": "isPharmacienExists",
      "outputs": [
        {
          "internalType": "string",
          "name": "",
          "type": "string"
        }
      ],
      "stateMutability": "view",
      "type": "function",
      "constant": true
    },
    {
      "inputs": [],
      "name": "AdministrateurName",
      "outputs": [
        {
          "internalType": "string",
          "name": "",
          "type": "string"
        }
      ],
      "stateMutability": "view",
      "type": "function",
      "constant": true
    },
    {
      "inputs": [],
      "name": "FabricantName",
      "outputs": [
        {
          "internalType": "string",
          "name": "",
          "type": "string"
        }
      ],
      "stateMutability": "view",
      "type": "function",
      "constant": true
    },
    {
      "inputs": [],
      "name": "TransporteurName",
      "outputs": [
        {
          "internalType": "string",
          "name": "",
          "type": "string"
        }
      ],
      "stateMutability": "view",
      "type": "function",
      "constant": true
    },
    {
      "inputs": [],
      "name": "PharmacienName",
      "outputs": [
        {
          "internalType": "string",
          "name": "",
          "type": "string"
        }
      ],
      "stateMutability": "view",
      "type": "function",
      "constant": true
    },
    {
      "inputs": [
        {
          "internalType": "string",
          "name": "_nommedicament",
          "type": "string"
        },
        {
          "internalType": "string",
          "name": "_Datef",
          "type": "string"
        },
        {
          "internalType": "uint32",
          "name": "_Tempmax",
          "type": "uint32"
        },
        {
          "internalType": "uint32",
          "name": "_Tempmin",
          "type": "uint32"
        }
      ],
      "name": "setMedicament",
      "outputs": [],
      "stateMutability": "nonpayable",
      "type": "function"
    },
    {
      "inputs": [
        {
          "internalType": "string",
          "name": "_nommedicament",
          "type": "string"
        },
        {
          "internalType": "uint32",
          "name": "_Quantite",
          "type": "uint32"
        },
        {
          "internalType": "string",
          "name": "_Dated",
          "type": "string"
        },
        {
          "internalType": "address",
          "name": "_idtransporteur",
          "type": "address"
        },
        {
          "internalType": "address",
          "name": "idpharmacien",
          "type": "address"
        }
      ],
      "name": "setRequest",
      "outputs": [],
      "stateMutability": "nonpayable",
      "type": "function"
    },
    {
      "inputs": [
        {
          "internalType": "string",
          "name": "_nommedicament",
          "type": "string"
        }
      ],
      "name": "getTempmin",
      "outputs": [
        {
          "internalType": "uint32",
          "name": "",
          "type": "uint32"
        }
      ],
      "stateMutability": "view",
      "type": "function",
      "constant": true
    },
    {
      "inputs": [
        {
          "internalType": "string",
          "name": "_nommedicament",
          "type": "string"
        }
      ],
      "name": "getTempmax",
      "outputs": [
        {
          "internalType": "uint32",
          "name": "",
          "type": "uint32"
        }
      ],
      "stateMutability": "view",
      "type": "function",
      "constant": true
    },
    {
      "inputs": [
        {
          "internalType": "string",
          "name": "_nommedicament",
          "type": "string"
        },
        {
          "internalType": "string",
          "name": "_condition",
          "type": "string"
        }
      ],
      "name": "setCondtion",
      "outputs": [],
      "stateMutability": "nonpayable",
      "type": "function"
    },
    {
      "inputs": [
        {
          "internalType": "string",
          "name": "_nommedicament",
          "type": "string"
        },
        {
          "internalType": "string",
          "name": "_demande",
          "type": "string"
        }
      ],
      "name": "setEtatdelademande",
      "outputs": [],
      "stateMutability": "nonpayable",
      "type": "function"
    },
    {
      "inputs": [
        {
          "internalType": "string",
          "name": "_nommedicament",
          "type": "string"
        },
        {
          "internalType": "string",
          "name": "_commande",
          "type": "string"
        }
      ],
      "name": "setEtatdelacommande",
      "outputs": [],
      "stateMutability": "nonpayable",
      "type": "function"
    }
  ],
  "bytecode": "0x6080604052600080546001600160a01b03191673c9d6fbfcea2c8ce42d34680ff02cbc5e8df187f51790553480156200003757600080fd5b50604080518082018252600c81526b4d617269656d205475726b6960a01b6020808301918252600080546001600160a01b03168152600191829052939093209151620000889392909201916200054b565b50620000f473bbf5efc3e61bcff9aad5803f041d2a32e4cd9bd66040518060400160405280600b81526020016a536169662047686162726960a81b8152506201e24060405180604001604052806005815260200164676162657360d81b815250620001c060201b60201c565b6200015773a521a269092a7f1031d111fc2e640cb2231da29f60405180604001604052806003815260200162416c6960e81b8152506201e24060405180604001604052806005815260200164676166736160d81b815250620002ee60201b60201c565b620001ba73af8286dee528f10a786fee951dd6d419eaecc13e6040518060400160405280600481526020016353616d6960e01b8152506201e240604051806040016040528060048152602001630e6ccc2f60e31b8152506200041c60201b60201c565b6200062d565b6001600160a01b038416600081815260026020908152604090912080546001600160a01b031916909217825584516200020092600101918601906200054b565b506001600160a01b0384166000908152600260208181526040909220908101805463ffffffff191663ffffffff8616179055825162000248926003909201918401906200054b565b5060408051808201825260098152684465626c6f7175656560b81b60208083019182526001600160a01b038816600090815260029091529290922090516200029792600490920191906200054b565b5050600680546001810182556000919091527ff652222313e28459528d920b65115c16c04f3efc82aaedc97be59f3f377c0d3f0180546001600160a01b0319166001600160a01b0394909416939093179092555050565b6001600160a01b038416600081815260046020908152604090912080546001600160a01b031916909217825584516200032e92600101918601906200054b565b506001600160a01b038416600090815260046020908152604090912060028101805463ffffffff191663ffffffff8616179055825162000377926003909201918401906200054b565b5060408051808201825260098152684465626c6f7175656560b81b60208083019182526001600160a01b0388166000908152600491829052939093209151620003c59392909201916200054b565b5050600780546001810182556000919091527fa66cc928b5edb82af9bd49922954155ab7b0942694bea4ce44661d9a8736c6880180546001600160a01b0319166001600160a01b0394909416939093179092555050565b6001600160a01b038416600081815260036020908152604090912080546001600160a01b031916909217825584516200045c92600101918601906200054b565b506001600160a01b038416600090815260036020818152604090922060028101805463ffffffff191663ffffffff87161790558351620004a5939190920191908401906200054b565b5060408051808201825260098152684465626c6f7175656560b81b60208083019182526001600160a01b03881660009081526003909152929092209051620004f492600490920191906200054b565b5050600880546001810182556000919091527ff3f7a9fe364faab93b216da50a3214154f22a0a2b415b23a84c8169e8b636ee30180546001600160a01b0319166001600160a01b0394909416939093179092555050565b8280546200055990620005f1565b90600052602060002090601f0160209004810192826200057d5760008555620005c8565b82601f106200059857805160ff1916838001178555620005c8565b82800160010185558215620005c8579182015b82811115620005c8578251825591602001919060010190620005ab565b50620005d6929150620005da565b5090565b5b80821115620005d65760008155600101620005db565b600181811c908216806200060657607f821691505b6020821081036200062757634e487b7160e01b600052602260045260246000fd5b50919050565b615d9e806200063d6000396000f3fe608060405234801561001057600080fd5b50600436106101e55760003560e01c806370f3c24d1161010f578063cb5aa488116100a2578063df40664811610071578063df406648146103c9578063df67db20146103d1578063e7021598146103d9578063ff1b636d146103ec57600080fd5b8063cb5aa48814610393578063d6eb9fdf1461039b578063d9649836146103ae578063d9750568146103b657600080fd5b8063b02b0ce2116100de578063b02b0ce21461033d578063b166448414610345578063bf58230e14610358578063c1e140be1461038057600080fd5b806370f3c24d146103075780637ba90b611461030f5780639f0cb84614610317578063a8037c671461032a57600080fd5b806341314a8d116101875780635d2514df116101565780635d2514df146102b957806362b4aecb146102d25780636e0b0e33146102da57806370c0ce14146102ed57600080fd5b806341314a8d1461028357806345f7c85f1461029657806352da1262146102a957806357b4211a146102b157600080fd5b8063238f6aa5116101c3578063238f6aa51461023857806326326858146102535780632c897fa81461025b5780632ebd5eb61461027057600080fd5b806308850207146101ea5780631ed6b65b1461020b5780632054526514610223575b600080fd5b6101f2610417565b604051610202949392919061561e565b60405180910390f35b6102136108eb565b6040516102029493929190615676565b6102366102313660046156df565b610f11565b005b610240610f3e565b6040516102029796959493929190615761565b61021361192f565b610263611f55565b60405161020291906157f8565b61023661027e3660046158b4565b611ff9565b6102366102913660046156df565b612033565b6102366102a43660046156df565b612059565b61026361207f565b610263612141565b6102c1612162565b604051610202959493929190615917565b6102636129ee565b6102366102e83660046159ca565b612a24565b6102f5612b4d565b60405161020296959493929190615a4e565b6102c16132b1565b610263613b2b565b6102366103253660046159ca565b613b7f565b6102366103383660046159ca565b613ca7565b6102f5613dcf565b610236610353366004615ad0565b61451f565b61036b610366366004615b54565b61467a565b60405163ffffffff9091168152602001610202565b61023661038e366004615b90565b6146b8565b6102c1614a12565b61036b6103a9366004615b54565b61528c565b6102636152c6565b6102366103c43660046158b4565b6152e7565b61026361531c565b610263615352565b6102366103e73660046158b4565b615374565b6000546103ff906001600160a01b031681565b6040516001600160a01b039091168152602001610202565b336000908152600260205260408120600501546060918291829182916001600160401b0381111561044a5761044a615812565b60405190808252806020026020018201604052801561047d57816020015b60608152602001906001900390816104685790505b5033600090815260026020526040812060050154919250906001600160401b038111156104ac576104ac615812565b6040519080825280602002602001820160405280156104df57816020015b60608152602001906001900390816104ca5790505b5033600090815260026020526040812060050154919250906001600160401b0381111561050e5761050e615812565b604051908082528060200260200182016040528015610537578160200160208202803683370190505b5033600090815260026020526040812060050154919250906001600160401b0381111561056657610566615812565b60405190808252806020026020018201604052801561058f578160200160208202803683370190505b50905060005b336000908152600260205260409020600501548110156108dc5733600090815260026020526040902060059081018054839081106105d5576105d5615c25565b906000526020600020016040516105ec9190615c75565b908152604051908190036020019020805461060690615c3b565b80601f016020809104026020016040519081016040528092919081815260200182805461063290615c3b565b801561067f5780601f106106545761010080835404028352916020019161067f565b820191906000526020600020905b81548152906001019060200180831161066257829003601f168201915b505050505085828151811061069657610696615c25565b6020026020010181905250600560026000336001600160a01b03166001600160a01b0316815260200190815260200160002060050182815481106106dc576106dc615c25565b906000526020600020016040516106f39190615c75565b9081526020016040518091039020600101805461070f90615c3b565b80601f016020809104026020016040519081016040528092919081815260200182805461073b90615c3b565b80156107885780601f1061075d57610100808354040283529160200191610788565b820191906000526020600020905b81548152906001019060200180831161076b57829003601f168201915b505050505084828151811061079f5761079f615c25565b6020026020010181905250600560026000336001600160a01b03166001600160a01b0316815260200190815260200160002060050182815481106107e5576107e5615c25565b906000526020600020016040516107fc9190615c75565b908152602001604051809103902060030160049054906101000a900463ffffffff1683828151811061083057610830615c25565b63ffffffff909216602092830291909101820152336000908152600290915260409020600590810180548390811061086a5761086a615c25565b906000526020600020016040516108819190615c75565b908152602001604051809103902060030160089054906101000a900463ffffffff168282815181106108b5576108b5615c25565b63ffffffff90921660209283029190910190910152806108d481615d10565b915050610595565b50929791965094509092509050565b336000908152600360205260408120600501546060918291829182916001600160401b0381111561091e5761091e615812565b60405190808252806020026020018201604052801561095157816020015b606081526020019060019003908161093c5790505b5033600090815260036020526040812060050154919250906001600160401b0381111561098057610980615812565b6040519080825280602002602001820160405280156109b357816020015b606081526020019060019003908161099e5790505b5033600090815260036020526040812060050154919250906001600160401b038111156109e2576109e2615812565b604051908082528060200260200182016040528015610a1557816020015b6060815260200190600190039081610a005790505b5033600090815260036020526040812060050154919250906001600160401b03811115610a4457610a44615812565b604051908082528060200260200182016040528015610a7757816020015b6060815260200190600190039081610a625790505b50905060005b336000908152600360205260409020600501548110156108dc573360009081526003602052604090206005908101805483908110610abd57610abd615c25565b90600052602060002001604051610ad49190615c75565b908152604051908190036020019020600a015460ff1615610eff573360009081526003602052604090206005908101805483908110610b1557610b15615c25565b90600052602060002001604051610b2c9190615c75565b90815260200160405180910390206005018054610b4890615c3b565b80601f0160208091040260200160405190810160405280929190818152602001828054610b7490615c3b565b8015610bc15780601f10610b9657610100808354040283529160200191610bc1565b820191906000526020600020905b815481529060010190602001808311610ba457829003601f168201915b5050505050858281518110610bd857610bd8615c25565b6020026020010181905250600560036000336001600160a01b03166001600160a01b031681526020019081526020016000206005018281548110610c1e57610c1e615c25565b90600052602060002001604051610c359190615c75565b90815260200160405180910390206006018054610c5190615c3b565b80601f0160208091040260200160405190810160405280929190818152602001828054610c7d90615c3b565b8015610cca5780601f10610c9f57610100808354040283529160200191610cca565b820191906000526020600020905b815481529060010190602001808311610cad57829003601f168201915b5050505050848281518110610ce157610ce1615c25565b6020026020010181905250600560036000336001600160a01b03166001600160a01b031681526020019081526020016000206005018281548110610d2757610d27615c25565b90600052602060002001604051610d3e9190615c75565b90815260200160405180910390206008018054610d5a90615c3b565b80601f0160208091040260200160405190810160405280929190818152602001828054610d8690615c3b565b8015610dd35780601f10610da857610100808354040283529160200191610dd3565b820191906000526020600020905b815481529060010190602001808311610db657829003601f168201915b5050505050838281518110610dea57610dea615c25565b6020026020010181905250600560036000336001600160a01b03166001600160a01b031681526020019081526020016000206005018281548110610e3057610e30615c25565b90600052602060002001604051610e479190615c75565b90815260200160405180910390206007018054610e6390615c3b565b80601f0160208091040260200160405190810160405280929190818152602001828054610e8f90615c3b565b8015610edc5780601f10610eb157610100808354040283529160200191610edc565b820191906000526020600020905b815481529060010190602001808311610ebf57829003601f168201915b5050505050828281518110610ef357610ef3615c25565b60200260200101819052505b80610f0981615d10565b915050610a7d565b6001600160a01b0383166000908152600460208190526040909120610f38910183836153a9565b50505050565b33600090815260026020526040812060050154606091829182918291829182918291906001600160401b03811115610f7857610f78615812565b604051908082528060200260200182016040528015610fab57816020015b6060815260200190600190039081610f965790505b5033600090815260026020526040812060050154919250906001600160401b03811115610fda57610fda615812565b60405190808252806020026020018201604052801561100d57816020015b6060815260200190600190039081610ff85790505b5033600090815260026020526040812060050154919250906001600160401b0381111561103c5761103c615812565b604051908082528060200260200182016040528015611065578160200160208202803683370190505b5033600090815260026020526040812060050154919250906001600160401b0381111561109457611094615812565b6040519080825280602002602001820160405280156110c757816020015b60608152602001906001900390816110b25790505b5033600090815260026020526040812060050154919250906001600160401b038111156110f6576110f6615812565b60405190808252806020026020018201604052801561112957816020015b60608152602001906001900390816111145790505b5033600090815260026020526040812060050154919250906001600160401b0381111561115857611158615812565b60405190808252806020026020018201604052801561118b57816020015b60608152602001906001900390816111765790505b5033600090815260026020526040812060050154919250906001600160401b038111156111ba576111ba615812565b6040519080825280602002602001820160405280156111ed57816020015b60608152602001906001900390816111d85790505b50905060005b3360009081526002602052604090206005015481101561191857336000908152600260205260409020600590810180548390811061123357611233615c25565b9060005260206000200160405161124a9190615c75565b908152604051908190036020019020600a015460ff161561190657336000908152600260205260409020600590810180548390811061128b5761128b615c25565b906000526020600020016040516112a29190615c75565b90815260405190819003602001902080546112bc90615c3b565b80601f01602080910402602001604051908101604052809291908181526020018280546112e890615c3b565b80156113355780601f1061130a57610100808354040283529160200191611335565b820191906000526020600020905b81548152906001019060200180831161131857829003601f168201915b505050505088828151811061134c5761134c615c25565b6020026020010181905250600560026000336001600160a01b03166001600160a01b03168152602001908152602001600020600501828154811061139257611392615c25565b906000526020600020016040516113a99190615c75565b908152602001604051809103902060020180546113c590615c3b565b80601f01602080910402602001604051908101604052809291908181526020018280546113f190615c3b565b801561143e5780601f106114135761010080835404028352916020019161143e565b820191906000526020600020905b81548152906001019060200180831161142157829003601f168201915b505050505087828151811061145557611455615c25565b6020026020010181905250600560026000336001600160a01b03166001600160a01b03168152602001908152602001600020600501828154811061149b5761149b615c25565b906000526020600020016040516114b29190615c75565b90815260405190819003602001902060030154865163ffffffff909116908790839081106114e2576114e2615c25565b63ffffffff909216602092830291909101820152336000908152600290915260409020600590810180548390811061151c5761151c615c25565b906000526020600020016040516115339190615c75565b9081526020016040518091039020600501805461154f90615c3b565b80601f016020809104026020016040519081016040528092919081815260200182805461157b90615c3b565b80156115c85780601f1061159d576101008083540402835291602001916115c8565b820191906000526020600020905b8154815290600101906020018083116115ab57829003601f168201915b50505050508582815181106115df576115df615c25565b6020026020010181905250600560026000336001600160a01b03166001600160a01b03168152602001908152602001600020600501828154811061162557611625615c25565b9060005260206000200160405161163c9190615c75565b9081526020016040518091039020600601805461165890615c3b565b80601f016020809104026020016040519081016040528092919081815260200182805461168490615c3b565b80156116d15780601f106116a6576101008083540402835291602001916116d1565b820191906000526020600020905b8154815290600101906020018083116116b457829003601f168201915b50505050508482815181106116e8576116e8615c25565b6020026020010181905250600560026000336001600160a01b03166001600160a01b03168152602001908152602001600020600501828154811061172e5761172e615c25565b906000526020600020016040516117459190615c75565b9081526020016040518091039020600701805461176190615c3b565b80601f016020809104026020016040519081016040528092919081815260200182805461178d90615c3b565b80156117da5780601f106117af576101008083540402835291602001916117da565b820191906000526020600020905b8154815290600101906020018083116117bd57829003601f168201915b50505050508382815181106117f1576117f1615c25565b6020026020010181905250600560026000336001600160a01b03166001600160a01b03168152602001908152602001600020600501828154811061183757611837615c25565b9060005260206000200160405161184e9190615c75565b9081526020016040518091039020600901805461186a90615c3b565b80601f016020809104026020016040519081016040528092919081815260200182805461189690615c3b565b80156118e35780601f106118b8576101008083540402835291602001916118e3565b820191906000526020600020905b8154815290600101906020018083116118c657829003601f168201915b50505050508282815181106118fa576118fa615c25565b60200260200101819052505b8061191081615d10565b9150506111f3565b50959d949c50929a50909850965094509092509050565b336000908152600460205260408120600501546060918291829182916001600160401b0381111561196257611962615812565b60405190808252806020026020018201604052801561199557816020015b60608152602001906001900390816119805790505b5033600090815260046020526040812060050154919250906001600160401b038111156119c4576119c4615812565b6040519080825280602002602001820160405280156119f757816020015b60608152602001906001900390816119e25790505b5033600090815260046020526040812060050154919250906001600160401b03811115611a2657611a26615812565b604051908082528060200260200182016040528015611a5957816020015b6060815260200190600190039081611a445790505b5033600090815260046020526040812060050154919250906001600160401b03811115611a8857611a88615812565b604051908082528060200260200182016040528015611abb57816020015b6060815260200190600190039081611aa65790505b50905060005b336000908152600460205260409020600501548110156108dc573360009081526004602052604090206005908101805483908110611b0157611b01615c25565b90600052602060002001604051611b189190615c75565b908152604051908190036020019020600a015460ff1615611f43573360009081526004602052604090206005908101805483908110611b5957611b59615c25565b90600052602060002001604051611b709190615c75565b90815260200160405180910390206005018054611b8c90615c3b565b80601f0160208091040260200160405190810160405280929190818152602001828054611bb890615c3b565b8015611c055780601f10611bda57610100808354040283529160200191611c05565b820191906000526020600020905b815481529060010190602001808311611be857829003601f168201915b5050505050858281518110611c1c57611c1c615c25565b6020026020010181905250600560046000336001600160a01b03166001600160a01b031681526020019081526020016000206005018281548110611c6257611c62615c25565b90600052602060002001604051611c799190615c75565b90815260200160405180910390206006018054611c9590615c3b565b80601f0160208091040260200160405190810160405280929190818152602001828054611cc190615c3b565b8015611d0e5780601f10611ce357610100808354040283529160200191611d0e565b820191906000526020600020905b815481529060010190602001808311611cf157829003601f168201915b5050505050848281518110611d2557611d25615c25565b6020026020010181905250600560046000336001600160a01b03166001600160a01b031681526020019081526020016000206005018281548110611d6b57611d6b615c25565b90600052602060002001604051611d829190615c75565b90815260200160405180910390206008018054611d9e90615c3b565b80601f0160208091040260200160405190810160405280929190818152602001828054611dca90615c3b565b8015611e175780601f10611dec57610100808354040283529160200191611e17565b820191906000526020600020905b815481529060010190602001808311611dfa57829003601f168201915b5050505050838281518110611e2e57611e2e615c25565b6020026020010181905250600560046000336001600160a01b03166001600160a01b031681526020019081526020016000206005018281548110611e7457611e74615c25565b90600052602060002001604051611e8b9190615c75565b90815260200160405180910390206009018054611ea790615c3b565b80601f0160208091040260200160405190810160405280929190818152602001828054611ed390615c3b565b8015611f205780601f10611ef557610100808354040283529160200191611f20565b820191906000526020600020905b815481529060010190602001808311611f0357829003601f168201915b5050505050828281518110611f3757611f37615c25565b60200260200101819052505b80611f4d81615d10565b915050611ac1565b336000908152600360205260409020600101805460609190611f7690615c3b565b80601f0160208091040260200160405190810160405280929190818152602001828054611fa290615c3b565b8015611fef5780601f10611fc457610100808354040283529160200191611fef565b820191906000526020600020905b815481529060010190602001808311611fd257829003601f168201915b5050505050905090565b8060058360405161200a9190615d37565b9081526020016040518091039020600601908051906020019061202e929190615429565b505050565b6001600160a01b0383166000908152600260205260409020610f389060040183836153a9565b6001600160a01b0383166000908152600360205260409020610f389060040183836153a9565b3360009081526003602052604090208054606091906001600160a01b0316158015906120f757506040516020016120b590615d53565b60405160208183030381529060405280519060200120816004016040516020016120df9190615c75565b60405160208183030381529060405280519060200120145b1561211c5750506040805180820190915260048152637472756560e01b602082015290565b505060408051808201909152600581526466616c736560d81b602082015290565b5090565b336000908152600460205260409020600101805460609190611f7690615c3b565b606080606080606060006008805490506001600160401b0381111561218957612189615812565b6040519080825280602002602001820160405280156121b2578160200160208202803683370190505b506008549091506000906001600160401b038111156121d3576121d3615812565b60405190808252806020026020018201604052801561220657816020015b60608152602001906001900390816121f15790505b506008549091506000906001600160401b0381111561222757612227615812565b604051908082528060200260200182016040528015612250578160200160208202803683370190505b506008549091506000906001600160401b0381111561227157612271615812565b6040519080825280602002602001820160405280156122a457816020015b606081526020019060019003908161228f5790505b506008549091506000906001600160401b038111156122c5576122c5615812565b6040519080825280602002602001820160405280156122f857816020015b60608152602001906001900390816122e35790505b50905060005b6008548110156129dc576000546001600160a01b031633036126a4576008818154811061232d5761232d615c25565b9060005260206000200160009054906101000a90046001600160a01b031686828151811061235d5761235d615c25565b60200260200101906001600160a01b031690816001600160a01b031681525050600360006008838154811061239457612394615c25565b60009182526020808320909101546001600160a01b03168352820192909252604001902060010180546123c690615c3b565b80601f01602080910402602001604051908101604052809291908181526020018280546123f290615c3b565b801561243f5780601f106124145761010080835404028352916020019161243f565b820191906000526020600020905b81548152906001019060200180831161242257829003601f168201915b505050505085828151811061245657612456615c25565b6020026020010181905250600360006008838154811061247857612478615c25565b60009182526020808320909101546001600160a01b03168352820192909252604001902060020154845163ffffffff909116908590839081106124bd576124bd615c25565b602002602001019063ffffffff16908163ffffffff168152505060036000600883815481106124ee576124ee615c25565b60009182526020808320909101546001600160a01b031683528201929092526040019020600301805461252090615c3b565b80601f016020809104026020016040519081016040528092919081815260200182805461254c90615c3b565b80156125995780601f1061256e57610100808354040283529160200191612599565b820191906000526020600020905b81548152906001019060200180831161257c57829003601f168201915b50505050508382815181106125b0576125b0615c25565b602002602001018190525060036000600883815481106125d2576125d2615c25565b60009182526020808320909101546001600160a01b031683528201929092526040019020600401805461260490615c3b565b80601f016020809104026020016040519081016040528092919081815260200182805461263090615c3b565b801561267d5780601f106126525761010080835404028352916020019161267d565b820191906000526020600020905b81548152906001019060200180831161266057829003601f168201915b505050505082828151811061269457612694615c25565b60200260200101819052506129ca565b6040516020016126b390615d53565b6040516020818303038152906040528051906020012060036000600884815481106126e0576126e0615c25565b60009182526020808320909101546001600160a01b03168352828101939093526040918201902090516127199260049092019101615c75565b60405160208183030381529060405280519060200120036129ca576008818154811061274757612747615c25565b9060005260206000200160009054906101000a90046001600160a01b031686828151811061277757612777615c25565b60200260200101906001600160a01b031690816001600160a01b03168152505060036000600883815481106127ae576127ae615c25565b60009182526020808320909101546001600160a01b03168352820192909252604001902060010180546127e090615c3b565b80601f016020809104026020016040519081016040528092919081815260200182805461280c90615c3b565b80156128595780601f1061282e57610100808354040283529160200191612859565b820191906000526020600020905b81548152906001019060200180831161283c57829003601f168201915b505050505085828151811061287057612870615c25565b6020026020010181905250600360006008838154811061289257612892615c25565b60009182526020808320909101546001600160a01b03168352820192909252604001902060020154845163ffffffff909116908590839081106128d7576128d7615c25565b602002602001019063ffffffff16908163ffffffff1681525050600360006008838154811061290857612908615c25565b60009182526020808320909101546001600160a01b031683528201929092526040019020600301805461293a90615c3b565b80601f016020809104026020016040519081016040528092919081815260200182805461296690615c3b565b80156129b35780601f10612988576101008083540402835291602001916129b3565b820191906000526020600020905b81548152906001019060200180831161299657829003601f168201915b505050505083828151811061269457612694615c25565b806129d481615d10565b9150506122fe565b50939992985090965094509092509050565b3360009081526002602052604090208054606091906001600160a01b0316158015906120f757506040516020016120b590615d53565b6001600160a01b038416600081815260036020908152604090912080546001600160a01b03191690921782558451612a629260010191860190615429565b506001600160a01b038416600090815260036020818152604090922060028101805463ffffffff191663ffffffff87161790558351612aa993919092019190840190615429565b5060408051808201825260098152684465626c6f7175656560b81b60208083019182526001600160a01b03881660009081526003909152929092209051612af69260049092019190615429565b5050600880546001810182556000919091527ff3f7a9fe364faab93b216da50a3214154f22a0a2b415b23a84c8169e8b636ee30180546001600160a01b0319166001600160a01b0394909416939093179092555050565b33600090815260036020526040812060050154606091829182918291829182916001600160401b03811115612b8457612b84615812565b604051908082528060200260200182016040528015612bb757816020015b6060815260200190600190039081612ba25790505b5033600090815260036020526040812060050154919250906001600160401b03811115612be657612be6615812565b604051908082528060200260200182016040528015612c1957816020015b6060815260200190600190039081612c045790505b5033600090815260036020526040812060050154919250906001600160401b03811115612c4857612c48615812565b604051908082528060200260200182016040528015612c71578160200160208202803683370190505b5033600090815260036020526040812060050154919250906001600160401b03811115612ca057612ca0615812565b604051908082528060200260200182016040528015612cc9578160200160208202803683370190505b5033600090815260036020526040812060050154919250906001600160401b03811115612cf857612cf8615812565b604051908082528060200260200182016040528015612d21578160200160208202803683370190505b5033600090815260036020526040812060050154919250906001600160401b03811115612d5057612d50615812565b604051908082528060200260200182016040528015612d8357816020015b6060815260200190600190039081612d6e5790505b50905060005b3360009081526003602052604090206005015481101561329d573360009081526003602052604090206005908101805483908110612dc957612dc9615c25565b90600052602060002001604051612de09190615c75565b908152604051908190036020019020600a015460ff161561328b573360009081526003602052604090206005908101805483908110612e2157612e21615c25565b90600052602060002001604051612e389190615c75565b9081526040519081900360200190208054612e5290615c3b565b80601f0160208091040260200160405190810160405280929190818152602001828054612e7e90615c3b565b8015612ecb5780601f10612ea057610100808354040283529160200191612ecb565b820191906000526020600020905b815481529060010190602001808311612eae57829003601f168201915b5050505050878281518110612ee257612ee2615c25565b6020026020010181905250600560036000336001600160a01b03166001600160a01b031681526020019081526020016000206005018281548110612f2857612f28615c25565b90600052602060002001604051612f3f9190615c75565b90815260200160405180910390206002018054612f5b90615c3b565b80601f0160208091040260200160405190810160405280929190818152602001828054612f8790615c3b565b8015612fd45780601f10612fa957610100808354040283529160200191612fd4565b820191906000526020600020905b815481529060010190602001808311612fb757829003601f168201915b5050505050868281518110612feb57612feb615c25565b6020026020010181905250600560036000336001600160a01b03166001600160a01b03168152602001908152602001600020600501828154811061303157613031615c25565b906000526020600020016040516130489190615c75565b90815260405190819003602001902060030154855163ffffffff9091169086908390811061307857613078615c25565b63ffffffff90921660209283029190910182015233600090815260039091526040902060059081018054839081106130b2576130b2615c25565b906000526020600020016040516130c99190615c75565b908152602001604051809103902060030160049054906101000a900463ffffffff168482815181106130fd576130fd615c25565b63ffffffff909216602092830291909101820152336000908152600390915260409020600590810180548390811061313757613137615c25565b9060005260206000200160405161314e9190615c75565b908152602001604051809103902060030160089054906101000a900463ffffffff1683828151811061318257613182615c25565b63ffffffff90921660209283029190910182015233600090815260039091526040902060059081018054839081106131bc576131bc615c25565b906000526020600020016040516131d39190615c75565b908152602001604051809103902060040180546131ef90615c3b565b80601f016020809104026020016040519081016040528092919081815260200182805461321b90615c3b565b80156132685780601f1061323d57610100808354040283529160200191613268565b820191906000526020600020905b81548152906001019060200180831161324b57829003601f168201915b505050505082828151811061327f5761327f615c25565b60200260200101819052505b8061329581615d10565b915050612d89565b50949b939a50919850965094509092509050565b606080606080606060006006805490506001600160401b038111156132d8576132d8615812565b604051908082528060200260200182016040528015613301578160200160208202803683370190505b506006549091506000906001600160401b0381111561332257613322615812565b60405190808252806020026020018201604052801561335557816020015b60608152602001906001900390816133405790505b506006549091506000906001600160401b0381111561337657613376615812565b60405190808252806020026020018201604052801561339f578160200160208202803683370190505b506006549091506000906001600160401b038111156133c0576133c0615812565b6040519080825280602002602001820160405280156133f357816020015b60608152602001906001900390816133de5790505b506006549091506000906001600160401b0381111561341457613414615812565b60405190808252806020026020018201604052801561344757816020015b60608152602001906001900390816134325790505b50905060005b6006548110156129dc576000546001600160a01b031633036137f3576006818154811061347c5761347c615c25565b9060005260206000200160009054906101000a90046001600160a01b03168682815181106134ac576134ac615c25565b60200260200101906001600160a01b031690816001600160a01b03168152505060026000600683815481106134e3576134e3615c25565b60009182526020808320909101546001600160a01b031683528201929092526040019020600101805461351590615c3b565b80601f016020809104026020016040519081016040528092919081815260200182805461354190615c3b565b801561358e5780601f106135635761010080835404028352916020019161358e565b820191906000526020600020905b81548152906001019060200180831161357157829003601f168201915b50505050508582815181106135a5576135a5615c25565b602002602001018190525060026000600683815481106135c7576135c7615c25565b60009182526020808320909101546001600160a01b03168352820192909252604001902060020154845163ffffffff9091169085908390811061360c5761360c615c25565b602002602001019063ffffffff16908163ffffffff1681525050600260006006838154811061363d5761363d615c25565b60009182526020808320909101546001600160a01b031683528201929092526040019020600301805461366f90615c3b565b80601f016020809104026020016040519081016040528092919081815260200182805461369b90615c3b565b80156136e85780601f106136bd576101008083540402835291602001916136e8565b820191906000526020600020905b8154815290600101906020018083116136cb57829003601f168201915b50505050508382815181106136ff576136ff615c25565b6020026020010181905250600260006006838154811061372157613721615c25565b60009182526020808320909101546001600160a01b031683528201929092526040019020600401805461375390615c3b565b80601f016020809104026020016040519081016040528092919081815260200182805461377f90615c3b565b80156137cc5780601f106137a1576101008083540402835291602001916137cc565b820191906000526020600020905b8154815290600101906020018083116137af57829003601f168201915b50505050508282815181106137e3576137e3615c25565b6020026020010181905250613b19565b60405160200161380290615d53565b60405160208183030381529060405280519060200120600260006006848154811061382f5761382f615c25565b60009182526020808320909101546001600160a01b03168352828101939093526040918201902090516138689260049092019101615c75565b6040516020818303038152906040528051906020012003613b19576006818154811061389657613896615c25565b9060005260206000200160009054906101000a90046001600160a01b03168682815181106138c6576138c6615c25565b60200260200101906001600160a01b031690816001600160a01b03168152505060026000600683815481106138fd576138fd615c25565b60009182526020808320909101546001600160a01b031683528201929092526040019020600101805461392f90615c3b565b80601f016020809104026020016040519081016040528092919081815260200182805461395b90615c3b565b80156139a85780601f1061397d576101008083540402835291602001916139a8565b820191906000526020600020905b81548152906001019060200180831161398b57829003601f168201915b50505050508582815181106139bf576139bf615c25565b602002602001018190525060026000600683815481106139e1576139e1615c25565b60009182526020808320909101546001600160a01b03168352820192909252604001902060020154845163ffffffff90911690859083908110613a2657613a26615c25565b602002602001019063ffffffff16908163ffffffff16815250506002600060068381548110613a5757613a57615c25565b60009182526020808320909101546001600160a01b0316835282019290925260400190206003018054613a8990615c3b565b80601f0160208091040260200160405190810160405280929190818152602001828054613ab590615c3b565b8015613b025780601f10613ad757610100808354040283529160200191613b02565b820191906000526020600020905b815481529060010190602001808311613ae557829003601f168201915b50505050508382815181106137e3576137e3615c25565b80613b2381615d10565b91505061344d565b6000546060906001600160a01b03163303613b5f57506040805180820190915260048152637472756560e01b602082015290565b5060408051808201909152600581526466616c736560d81b602082015290565b6001600160a01b038416600081815260026020908152604090912080546001600160a01b03191690921782558451613bbd9260010191860190615429565b506001600160a01b0384166000908152600260208181526040909220908101805463ffffffff191663ffffffff86161790558251613c0392600390920191840190615429565b5060408051808201825260098152684465626c6f7175656560b81b60208083019182526001600160a01b03881660009081526002909152929092209051613c509260049092019190615429565b5050600680546001810182556000919091527ff652222313e28459528d920b65115c16c04f3efc82aaedc97be59f3f377c0d3f0180546001600160a01b0319166001600160a01b0394909416939093179092555050565b6001600160a01b038416600081815260046020908152604090912080546001600160a01b03191690921782558451613ce59260010191860190615429565b506001600160a01b038416600090815260046020908152604090912060028101805463ffffffff191663ffffffff86161790558251613d2c92600390920191840190615429565b5060408051808201825260098152684465626c6f7175656560b81b60208083019182526001600160a01b0388166000908152600491829052939093209151613d78939290920191615429565b5050600780546001810182556000919091527fa66cc928b5edb82af9bd49922954155ab7b0942694bea4ce44661d9a8736c6880180546001600160a01b0319166001600160a01b0394909416939093179092555050565b33600090815260046020526040812060050154606091829182918291829182916001600160401b03811115613e0657613e06615812565b604051908082528060200260200182016040528015613e3957816020015b6060815260200190600190039081613e245790505b5033600090815260046020526040812060050154919250906001600160401b03811115613e6857613e68615812565b604051908082528060200260200182016040528015613e9b57816020015b6060815260200190600190039081613e865790505b5033600090815260046020526040812060050154919250906001600160401b03811115613eca57613eca615812565b604051908082528060200260200182016040528015613ef3578160200160208202803683370190505b5033600090815260046020526040812060050154919250906001600160401b03811115613f2257613f22615812565b604051908082528060200260200182016040528015613f4b578160200160208202803683370190505b5033600090815260046020526040812060050154919250906001600160401b03811115613f7a57613f7a615812565b604051908082528060200260200182016040528015613fa3578160200160208202803683370190505b5033600090815260046020526040812060050154919250906001600160401b03811115613fd257613fd2615812565b60405190808252806020026020018201604052801561400557816020015b6060815260200190600190039081613ff05790505b50905060005b3360009081526004602052604090206005015481101561329d57336000908152600460205260409020600590810180548390811061404b5761404b615c25565b906000526020600020016040516140629190615c75565b908152604051908190036020019020600a015460ff161561450d5733600090815260046020526040902060059081018054839081106140a3576140a3615c25565b906000526020600020016040516140ba9190615c75565b90815260405190819003602001902080546140d490615c3b565b80601f016020809104026020016040519081016040528092919081815260200182805461410090615c3b565b801561414d5780601f106141225761010080835404028352916020019161414d565b820191906000526020600020905b81548152906001019060200180831161413057829003601f168201915b505050505087828151811061416457614164615c25565b6020026020010181905250600560046000336001600160a01b03166001600160a01b0316815260200190815260200160002060050182815481106141aa576141aa615c25565b906000526020600020016040516141c19190615c75565b908152602001604051809103902060020180546141dd90615c3b565b80601f016020809104026020016040519081016040528092919081815260200182805461420990615c3b565b80156142565780601f1061422b57610100808354040283529160200191614256565b820191906000526020600020905b81548152906001019060200180831161423957829003601f168201915b505050505086828151811061426d5761426d615c25565b6020026020010181905250600560046000336001600160a01b03166001600160a01b0316815260200190815260200160002060050182815481106142b3576142b3615c25565b906000526020600020016040516142ca9190615c75565b90815260405190819003602001902060030154855163ffffffff909116908690839081106142fa576142fa615c25565b63ffffffff909216602092830291909101820152336000908152600490915260409020600590810180548390811061433457614334615c25565b9060005260206000200160405161434b9190615c75565b908152602001604051809103902060030160049054906101000a900463ffffffff1684828151811061437f5761437f615c25565b63ffffffff90921660209283029190910182015233600090815260049091526040902060059081018054839081106143b9576143b9615c25565b906000526020600020016040516143d09190615c75565b908152602001604051809103902060030160089054906101000a900463ffffffff1683828151811061440457614404615c25565b63ffffffff909216602092830291909101820152336000908152600490915260409020600590810180548390811061443e5761443e615c25565b906000526020600020016040516144559190615c75565b9081526020016040518091039020600401805461447190615c3b565b80601f016020809104026020016040519081016040528092919081815260200182805461449d90615c3b565b80156144ea5780601f106144bf576101008083540402835291602001916144ea565b820191906000526020600020905b8154815290600101906020018083116144cd57829003601f168201915b505050505082828151811061450157614501615c25565b60200260200101819052505b8061451781615d10565b91505061400b565b836005856040516145309190615d37565b90815260200160405180910390206000019080519060200190614554929190615429565b50826005856040516145669190615d37565b9081526020016040518091039020600101908051906020019061458a929190615429565b508060058560405161459c9190615d37565b908152602001604051809103902060030160046101000a81548163ffffffff021916908363ffffffff160217905550816005856040516145dc9190615d37565b908152602001604051809103902060030160086101000a81548163ffffffff021916908363ffffffff160217905550600060058560405161461d9190615d37565b9081526040805160209281900383019020600a01805460ff191693151593909317909255336000908152600282529182206005018054600181018255908352918190208651614673939190910191870190615429565b5050505050565b600060058260405161468c9190615d37565b9081526040519081900360200190206003015463ffffffff680100000000000000009091041692915050565b836005866040516146c99190615d37565b908152602001604051809103902060030160006101000a81548163ffffffff021916908363ffffffff160217905550826005866040516147099190615d37565b9081526020016040518091039020600201908051906020019061472d929190615429565b5060016005866040516147409190615d37565b9081526020016040518091039020600a0160006101000a81548160ff02191690831515021790555060405180604001604052806013815260200172656e20626f6e6e6520636f6e646974696f6e7360681b8152506005866040516147a49190615d37565b908152602001604051809103902060040190805190602001906147c8929190615429565b506040518060400160405280600a815260200169656e20617474656e746560b01b8152506005866040516147fc9190615d37565b90815260200160405180910390206005019080519060200190614820929190615429565b506040518060400160405280600a815260200169656e20617474656e746560b01b8152506005866040516148549190615d37565b90815260200160405180910390206006019080519060200190614878929190615429565b50336000908152600260205260409081902090516001909101906005906148a0908890615d37565b90815260200160405180910390206008019080546148bd90615c3b565b6148c892919061549d565b5060046000836001600160a01b03166001600160a01b031681526020019081526020016000206001016005866040516149019190615d37565b908152602001604051809103902060070190805461491e90615c3b565b61492992919061549d565b5060036000826001600160a01b03166001600160a01b031681526020019081526020016000206001016005866040516149629190615d37565b908152602001604051809103902060090190805461497f90615c3b565b61498a92919061549d565b506001600160a01b0382166000908152600460209081526040822060050180546001810182559083529181902087516149ca939190910191880190615429565b506001600160a01b038116600090815260036020908152604082206005018054600181018255908352918190208751614a0a939190910191880190615429565b505050505050565b606080606080606060006007805490506001600160401b03811115614a3957614a39615812565b604051908082528060200260200182016040528015614a62578160200160208202803683370190505b506007549091506000906001600160401b03811115614a8357614a83615812565b604051908082528060200260200182016040528015614ab657816020015b6060815260200190600190039081614aa15790505b506007549091506000906001600160401b03811115614ad757614ad7615812565b604051908082528060200260200182016040528015614b00578160200160208202803683370190505b506007549091506000906001600160401b03811115614b2157614b21615812565b604051908082528060200260200182016040528015614b5457816020015b6060815260200190600190039081614b3f5790505b506007549091506000906001600160401b03811115614b7557614b75615812565b604051908082528060200260200182016040528015614ba857816020015b6060815260200190600190039081614b935790505b50905060005b6007548110156129dc576000546001600160a01b03163303614f545760078181548110614bdd57614bdd615c25565b9060005260206000200160009054906101000a90046001600160a01b0316868281518110614c0d57614c0d615c25565b60200260200101906001600160a01b031690816001600160a01b0316815250506004600060078381548110614c4457614c44615c25565b60009182526020808320909101546001600160a01b0316835282019290925260400190206001018054614c7690615c3b565b80601f0160208091040260200160405190810160405280929190818152602001828054614ca290615c3b565b8015614cef5780601f10614cc457610100808354040283529160200191614cef565b820191906000526020600020905b815481529060010190602001808311614cd257829003601f168201915b5050505050858281518110614d0657614d06615c25565b60200260200101819052506004600060078381548110614d2857614d28615c25565b60009182526020808320909101546001600160a01b03168352820192909252604001902060020154845163ffffffff90911690859083908110614d6d57614d6d615c25565b602002602001019063ffffffff16908163ffffffff16815250506004600060078381548110614d9e57614d9e615c25565b60009182526020808320909101546001600160a01b0316835282019290925260400190206003018054614dd090615c3b565b80601f0160208091040260200160405190810160405280929190818152602001828054614dfc90615c3b565b8015614e495780601f10614e1e57610100808354040283529160200191614e49565b820191906000526020600020905b815481529060010190602001808311614e2c57829003601f168201915b5050505050838281518110614e6057614e60615c25565b60200260200101819052506004600060078381548110614e8257614e82615c25565b60009182526020808320909101546001600160a01b0316835282019290925260400190206004018054614eb490615c3b565b80601f0160208091040260200160405190810160405280929190818152602001828054614ee090615c3b565b8015614f2d5780601f10614f0257610100808354040283529160200191614f2d565b820191906000526020600020905b815481529060010190602001808311614f1057829003601f168201915b5050505050828281518110614f4457614f44615c25565b602002602001018190525061527a565b604051602001614f6390615d53565b604051602081830303815290604052805190602001206004600060078481548110614f9057614f90615c25565b60009182526020808320909101546001600160a01b0316835282810193909352604091820190209051614fc99260049092019101615c75565b604051602081830303815290604052805190602001200361527a5760078181548110614ff757614ff7615c25565b9060005260206000200160009054906101000a90046001600160a01b031686828151811061502757615027615c25565b60200260200101906001600160a01b031690816001600160a01b031681525050600460006007838154811061505e5761505e615c25565b60009182526020808320909101546001600160a01b031683528201929092526040019020600101805461509090615c3b565b80601f01602080910402602001604051908101604052809291908181526020018280546150bc90615c3b565b80156151095780601f106150de57610100808354040283529160200191615109565b820191906000526020600020905b8154815290600101906020018083116150ec57829003601f168201915b505050505085828151811061512057615120615c25565b6020026020010181905250600460006007838154811061514257615142615c25565b60009182526020808320909101546001600160a01b03168352820192909252604001902060020154845163ffffffff9091169085908390811061518757615187615c25565b602002602001019063ffffffff16908163ffffffff168152505060046000600783815481106151b8576151b8615c25565b60009182526020808320909101546001600160a01b03168352820192909252604001902060030180546151ea90615c3b565b80601f016020809104026020016040519081016040528092919081815260200182805461521690615c3b565b80156152635780601f1061523857610100808354040283529160200191615263565b820191906000526020600020905b81548152906001019060200180831161524657829003601f168201915b5050505050838281518110614f4457614f44615c25565b8061528481615d10565b915050614bae565b600060058260405161529e9190615d37565b9081526040519081900360200190206003015463ffffffff6401000000009091041692915050565b336000908152600260205260409020600101805460609190611f7690615c3b565b806005836040516152f89190615d37565b9081526020016040518091039020600401908051906020019061202e929190615429565b3360009081526004602052604090208054606091906001600160a01b0316158015906120f757506040516020016120b590615d53565b33600090815260016020819052604090912001805460609190611f7690615c3b565b806005836040516153859190615d37565b9081526020016040518091039020600501908051906020019061202e929190615429565b8280546153b590615c3b565b90600052602060002090601f0160209004810192826153d7576000855561541d565b82601f106153f05782800160ff1982351617855561541d565b8280016001018555821561541d579182015b8281111561541d578235825591602001919060010190615402565b5061213d929150615518565b82805461543590615c3b565b90600052602060002090601f016020900481019282615457576000855561541d565b82601f1061547057805160ff191683800117855561541d565b8280016001018555821561541d579182015b8281111561541d578251825591602001919060010190615482565b8280546154a990615c3b565b90600052602060002090601f0160209004810192826154cb576000855561541d565b82601f106154dc578054855561541d565b8280016001018555821561541d57600052602060002091601f016020900482015b8281111561541d5782548255916001019190600101906154fd565b5b8082111561213d5760008155600101615519565b60005b83811015615548578181015183820152602001615530565b83811115610f385750506000910152565b6000815180845261557181602086016020860161552d565b601f01601f19169290920160200192915050565b600082825180855260208086019550808260051b84010181860160005b848110156155d057601f198684030189526155be838351615559565b988401989250908301906001016155a2565b5090979650505050505050565b600081518084526020808501945080840160005b8381101561561357815163ffffffff16875295820195908201906001016155f1565b509495945050505050565b6080815260006156316080830187615585565b82810360208401526156438187615585565b9050828103604084015261565781866155dd565b9050828103606084015261566b81856155dd565b979650505050505050565b6080815260006156896080830187615585565b828103602084015261569b8187615585565b905082810360408401526156af8186615585565b9050828103606084015261566b8185615585565b80356001600160a01b03811681146156da57600080fd5b919050565b6000806000604084860312156156f457600080fd5b6156fd846156c3565b925060208401356001600160401b038082111561571957600080fd5b818601915086601f83011261572d57600080fd5b81358181111561573c57600080fd5b87602082850101111561574e57600080fd5b6020830194508093505050509250925092565b60e08152600061577460e083018a615585565b8281036020840152615786818a615585565b9050828103604084015261579a81896155dd565b905082810360608401526157ae8188615585565b905082810360808401526157c28187615585565b905082810360a08401526157d68186615585565b905082810360c08401526157ea8185615585565b9a9950505050505050505050565b60208152600061580b6020830184615559565b9392505050565b634e487b7160e01b600052604160045260246000fd5b600082601f83011261583957600080fd5b81356001600160401b038082111561585357615853615812565b604051601f8301601f19908116603f0116810190828211818310171561587b5761587b615812565b8160405283815286602085880101111561589457600080fd5b836020870160208301376000602085830101528094505050505092915050565b600080604083850312156158c757600080fd5b82356001600160401b03808211156158de57600080fd5b6158ea86838701615828565b9350602085013591508082111561590057600080fd5b5061590d85828601615828565b9150509250929050565b60a0808252865190820181905260009060209060c0840190828a01845b828110156159595781516001600160a01b031684529284019290840190600101615934565b5050508381038285015261596d8189615585565b915050828103604084015261598281876155dd565b905082810360608401526159968186615585565b905082810360808401526159aa8185615585565b98975050505050505050565b803563ffffffff811681146156da57600080fd5b600080600080608085870312156159e057600080fd5b6159e9856156c3565b935060208501356001600160401b0380821115615a0557600080fd5b615a1188838901615828565b9450615a1f604088016159b6565b93506060870135915080821115615a3557600080fd5b50615a4287828801615828565b91505092959194509250565b60c081526000615a6160c0830189615585565b8281036020840152615a738189615585565b90508281036040840152615a8781886155dd565b90508281036060840152615a9b81876155dd565b90508281036080840152615aaf81866155dd565b905082810360a0840152615ac38185615585565b9998505050505050505050565b60008060008060808587031215615ae657600080fd5b84356001600160401b0380821115615afd57600080fd5b615b0988838901615828565b95506020870135915080821115615b1f57600080fd5b50615b2c87828801615828565b935050615b3b604086016159b6565b9150615b49606086016159b6565b905092959194509250565b600060208284031215615b6657600080fd5b81356001600160401b03811115615b7c57600080fd5b615b8884828501615828565b949350505050565b600080600080600060a08688031215615ba857600080fd5b85356001600160401b0380821115615bbf57600080fd5b615bcb89838a01615828565b9650615bd9602089016159b6565b95506040880135915080821115615bef57600080fd5b50615bfc88828901615828565b935050615c0b606087016156c3565b9150615c19608087016156c3565b90509295509295909350565b634e487b7160e01b600052603260045260246000fd5b600181811c90821680615c4f57607f821691505b602082108103615c6f57634e487b7160e01b600052602260045260246000fd5b50919050565b600080835481600182811c915080831680615c9157607f831692505b60208084108203615cb057634e487b7160e01b86526022600452602486fd5b818015615cc45760018114615cd557615d02565b60ff19861689528489019650615d02565b60008a81526020902060005b86811015615cfa5781548b820152908501908301615ce1565b505084890196505b509498975050505050505050565b600060018201615d3057634e487b7160e01b600052601160045260246000fd5b5060010190565b60008251615d4981846020870161552d565b9190910192915050565b684465626c6f7175656560b81b81526009019056fea2646970667358221220c68cdb33363034352119a5a8e604c26dfd18d5d1646e7cd06a8db3533a9faece64736f6c634300080d0033",
  "immutableReferences": {},
  "source": "// SPDX-License-Identifier: MIT\npragma solidity >=0.4.22 <0.9.0;\npragma experimental ABIEncoderV2;\nimport \"./Secondary.sol\";\n\ncontract Main is Secondary {\n    constructor() {\n        Admins[Admin].name = \"Mariem Turki\";\n        signupFabricant(\n            0xbbf5efc3E61bcfF9aAd5803f041D2A32E4cd9bD6,\n            \"Saif Ghabri\",\n            123456,\n            \"gabes\"\n        );\n        signupTransporteur(\n            0xa521a269092a7f1031d111fC2e640cb2231dA29f,\n            \"Ali\",\n            123456,\n            \"gafsa\"\n        );\n        signupPharmacien(\n            0xaF8286dEE528F10a786Fee951DD6D419eaecC13e,\n            \"Sami\",\n            123456,\n            \"sfax\"\n        );\n    }\n\n    //************************************************************************************************\n    //************************************************************************************************\n    //************************************************************************************************\n    //************************************************************************************************\n\n    function signupFabricant(\n        address _id,\n        string memory _name,\n        uint32 _phonenumber,\n        string memory _gouvernorat\n    ) public {\n        Fabricants[_id].Fabricant_id = _id;\n        Fabricants[_id].name = _name;\n        Fabricants[_id].phonenumber = _phonenumber;\n        Fabricants[_id].gouvernorat = _gouvernorat;\n        Fabricants[_id].statut = \"Debloquee\";\n        Fabricantaddress.push(_id);\n    }\n\n    //************************************************************************************************\n    //************************************************************************************************\n    //************************************************************************************************\n    //************************************************************************************************\n\n    function signupTransporteur(\n        address _id,\n        string memory _name,\n        uint32 _phonenumber,\n        string memory _gouvernorat\n    ) public {\n        transporteurs[_id].transporteur_id = _id;\n        transporteurs[_id].name = _name;\n        transporteurs[_id].phonenumber = _phonenumber;\n        transporteurs[_id].gouvernorat = _gouvernorat;\n        transporteurs[_id].statut = \"Debloquee\";\n        transporteuraddress.push(_id);\n    }\n\n    function signupPharmacien(\n        address _id,\n        string memory _name,\n        uint32 _phonenumber,\n        string memory _gouvernorat\n    ) public {\n        pharmaciens[_id].pharmacien_id = _id;\n        pharmaciens[_id].name = _name;\n        pharmaciens[_id].phonenumber = _phonenumber;\n        pharmaciens[_id].gouvernorat = _gouvernorat;\n        pharmaciens[_id].statut = \"Debloquee\";\n        pharmacienaddress.push(_id);\n    }\n\n    //************************************************************************************************\n    //************************************************************************************************\n    //************************************************************************************************\n    //************************************************************************************************\n\n    function block_deblockFabricant(address _id, string calldata _statut)\n        external\n    {\n        Fabricants[_id].statut = _statut;\n    }\n\n    function block_deblockTransporteur(address _id, string calldata _statut)\n        external\n    {\n        transporteurs[_id].statut = _statut;\n    }\n\n    function block_deblockPharmacien(address _id, string calldata _statut)\n        external\n    {\n        pharmaciens[_id].statut = _statut;\n    }\n\n    // ***********************************************************************************************\n    //************************************************************************************************\n    //************************************************************************************************\n    // ***********************************************************************************************\n\n    function isAdminExists() external view returns (string memory) {\n        if (msg.sender == Admin) {\n            return \"true\";\n        } else {\n            return \"false\";\n        }\n    }\n\n    //************************************************************************************************\n    //************************************************************************************************\n    //************************************************************************************************\n    //************************************************************************************************\n\n    function isFabricantExists() external view returns (string memory) {\n        _Fabricant storage f = Fabricants[msg.sender];\n        if (\n            (f.Fabricant_id > address(0x0)) &&\n            (keccak256(abi.encodePacked(f.statut)) ==\n                keccak256(abi.encodePacked(\"Debloquee\")))\n        ) {\n            return \"true\";\n        } else {\n            return \"false\";\n        }\n    }\n\n    //************************************************************************************************\n    //************************************************************************************************\n    //************************************************************************************************\n    //************************************************************************************************\n\n    function isTransporteurExists() external view returns (string memory) {\n        _transporteur storage d = transporteurs[msg.sender];\n        if (\n            (d.transporteur_id > address(0x0)) &&\n            (keccak256(abi.encodePacked(d.statut)) ==\n                keccak256(abi.encodePacked(\"Debloquee\")))\n        ) {\n            return \"true\";\n        } else {\n            return \"false\";\n        }\n    }\n\n    //************************************************************************************************\n    //************************************************************************************************\n    //************************************************************************************************\n    //************************************************************************************************\n\n    function isPharmacienExists() external view returns (string memory) {\n        _pharmacien storage p = pharmaciens[msg.sender];\n        if (\n            (p.pharmacien_id > address(0x0)) &&\n            (keccak256(abi.encodePacked(p.statut)) ==\n                keccak256(abi.encodePacked(\"Debloquee\")))\n        ) {\n            return \"true\";\n        } else {\n            return \"false\";\n        }\n    }\n\n    //************************************************************************************************\n    //************************************************************************************************\n    //************************************************************************************************\n    //************************************************************************************************\n\n    function AdministrateurName() external view returns (string memory) {\n        return Admins[msg.sender].name;\n    }\n\n    function FabricantName() external view returns (string memory) {\n        return Fabricants[msg.sender].name;\n    }\n\n    function TransporteurName() external view returns (string memory) {\n        return transporteurs[msg.sender].name;\n    }\n\n    function PharmacienName() external view returns (string memory) {\n        return pharmaciens[msg.sender].name;\n    }\n\n    //************************************************************************************************\n    //************************************************************************************************\n    //************************************************************************************************\n    //************************************************************************************************\n\n    function setMedicament(\n        string memory _nommedicament,\n        string memory _Datef,\n        uint32 _Tempmax,\n        uint32 _Tempmin\n    ) public {\n        medicaments[_nommedicament].nommedicament = _nommedicament;\n        medicaments[_nommedicament].Datef = _Datef;\n        medicaments[_nommedicament].Tempmin = _Tempmin;\n        medicaments[_nommedicament].Tempmax = _Tempmax;\n        medicaments[_nommedicament].requested = false;\n        Fabricants[msg.sender].medicamentslist.push(_nommedicament);\n    }\n\n    //************************************************************************************************\n    //************************************************************************************************\n    //************************************************************************************************\n    //************************************************************************************************\n\n    function setRequest(\n        string memory _nommedicament,\n        uint32 _Quantite,\n        string memory _Dated,\n        address _idtransporteur,\n        address idpharmacien\n    ) public {\n        medicaments[_nommedicament].Quantite = _Quantite;\n        medicaments[_nommedicament].Dated = _Dated;\n        medicaments[_nommedicament].requested = true;\n        medicaments[_nommedicament].condition = \"en bonne conditions\";\n        medicaments[_nommedicament].etatdelademande = \"en attente\";\n        medicaments[_nommedicament].etatdelacommande = \"en attente\";\n        medicaments[_nommedicament].Fabricantname = Fabricants[msg.sender].name;\n        medicaments[_nommedicament].transporteurname = transporteurs[\n            _idtransporteur\n        ].name;\n        medicaments[_nommedicament].pharmacienname = pharmaciens[idpharmacien]\n            .name;\n        transporteurs[_idtransporteur].medicamentslist.push(_nommedicament);\n        pharmaciens[idpharmacien].medicamentslist.push(_nommedicament);\n    }\n\n    //************************************************************************************************\n    //************************************************************************************************\n    //************************************************************************************************\n    //************************************************************************************************\n\n    function getTempmin(string memory _nommedicament)\n        external\n        view\n        returns (uint32)\n    {\n        return medicaments[_nommedicament].Tempmin;\n    }\n\n    function getTempmax(string memory _nommedicament)\n        external\n        view\n        returns (uint32)\n    {\n        return medicaments[_nommedicament].Tempmax;\n    }\n\n    function setCondtion(string memory _nommedicament, string memory _condition)\n        external\n    {\n        medicaments[_nommedicament].condition = _condition;\n    }\n\n    function setEtatdelademande(\n        string memory _nommedicament,\n        string memory _demande\n    ) external {\n        medicaments[_nommedicament].etatdelademande = _demande;\n    }\n\n    function setEtatdelacommande(\n        string memory _nommedicament,\n        string memory _commande\n    ) external {\n        medicaments[_nommedicament].etatdelacommande = _commande;\n    }\n}\n",
  "sourcePath": "C:\\Users\\Ghabry\\Desktop\\Final Project\\contracts\\Main.sol",
  "compiler": {
    "name": "solc",
    "version": "0.8.13+commit.abaa5c0e.Emscripten.clang"
  },
  "schemaVersion": "3.4.4",
  "updatedAt": "2022-05-27T07:15:09.220Z",
  "networkType": "ethereum",
  "devdoc": {
    "kind": "dev",
    "methods": {},
    "version": 1
  },
  "userdoc": {
    "kind": "user",
    "methods": {},
    "version": 1
  }
}